{
  "_format": "hh-sol-artifact-1",
  "contractName": "FileStore",
  "sourceName": "contracts/FileStore.sol",
  "abi": [
    {
      "anonymous": false,
      "inputs": [
        {
          "indexed": false,
          "internalType": "string",
          "name": "ipfsHash",
          "type": "string"
        },
        {
          "indexed": false,
          "internalType": "string",
          "name": "studentBlockId",
          "type": "string"
        },
        {
          "indexed": true,
          "internalType": "address",
          "name": "uploadedBy",
          "type": "address"
        },
        {
          "indexed": false,
          "internalType": "uint256",
          "name": "timestamp",
          "type": "uint256"
        }
      ],
      "name": "FileStored",
      "type": "event"
    },
    {
      "inputs": [
        {
          "internalType": "uint256",
          "name": "",
          "type": "uint256"
        }
      ],
      "name": "files",
      "outputs": [
        {
          "internalType": "string",
          "name": "ipfsHash",
          "type": "string"
        },
        {
          "internalType": "string",
          "name": "studentBlockId",
          "type": "string"
        },
        {
          "internalType": "address",
          "name": "uploadedBy",
          "type": "address"
        },
        {
          "internalType": "uint256",
          "name": "timestamp",
          "type": "uint256"
        }
      ],
      "stateMutability": "view",
      "type": "function"
    },
    {
      "inputs": [],
      "name": "getAllFiles",
      "outputs": [
        {
          "internalType": "string[]",
          "name": "ipfsHashes",
          "type": "string[]"
        },
        {
          "internalType": "string[]",
          "name": "studentBlockIds",
          "type": "string[]"
        },
        {
          "internalType": "address[]",
          "name": "uploaders",
          "type": "address[]"
        },
        {
          "internalType": "uint256[]",
          "name": "timestamps",
          "type": "uint256[]"
        }
      ],
      "stateMutability": "view",
      "type": "function"
    },
    {
      "inputs": [
        {
          "internalType": "string",
          "name": "_ipfsHash",
          "type": "string"
        },
        {
          "internalType": "string",
          "name": "_studentBlockId",
          "type": "string"
        }
      ],
      "name": "uploadFile",
      "outputs": [],
      "stateMutability": "nonpayable",
      "type": "function"
    }
  ],
  "bytecode": "0x6080604052348015600f57600080fd5b5061109c8061001f6000396000f3fe608060405234801561001057600080fd5b50600436106100415760003560e01c8063996d50bf14610046578063f4c714b414610062578063ff24b5d514610095575b600080fd5b610060600480360381019061005b919061082e565b6100b6565b005b61007c600480360381019061007791906108dc565b6101ed565b60405161008c94939291906109d8565b60405180910390f35b61009d61035d565b6040516100ad9493929190610cb3565b60405180910390f35b600060405180608001604052808481526020018381526020013373ffffffffffffffffffffffffffffffffffffffff168152602001428152509080600181540180825580915050600190039060005260206000209060040201600090919091909150600082015181600001908161012d9190610f20565b5060208201518160010190816101439190610f20565b5060408201518160020160006101000a81548173ffffffffffffffffffffffffffffffffffffffff021916908373ffffffffffffffffffffffffffffffffffffffff1602179055506060820151816003015550503373ffffffffffffffffffffffffffffffffffffffff167f2dd44ffc4752b4d1c1240f33e9e15cd562719254c311ae8398ed97c6f17311c78383426040516101e193929190610ff2565b60405180910390a25050565b600081815481106101fd57600080fd5b906000526020600020906004020160009150905080600001805461022090610d43565b80601f016020809104026020016040519081016040528092919081815260200182805461024c90610d43565b80156102995780601f1061026e57610100808354040283529160200191610299565b820191906000526020600020905b81548152906001019060200180831161027c57829003601f168201915b5050505050908060010180546102ae90610d43565b80601f01602080910402602001604051908101604052809291908181526020018280546102da90610d43565b80156103275780601f106102fc57610100808354040283529160200191610327565b820191906000526020600020905b81548152906001019060200180831161030a57829003601f168201915b5050505050908060020160009054906101000a900473ffffffffffffffffffffffffffffffffffffffff16908060030154905084565b6060806060806000808054905090508067ffffffffffffffff81111561038657610385610703565b5b6040519080825280602002602001820160405280156103b957816020015b60608152602001906001900390816103a45790505b5094508067ffffffffffffffff8111156103d6576103d5610703565b5b60405190808252806020026020018201604052801561040957816020015b60608152602001906001900390816103f45790505b5093508067ffffffffffffffff81111561042657610425610703565b5b6040519080825280602002602001820160405280156104545781602001602082028036833780820191505090505b5092508067ffffffffffffffff81111561047157610470610703565b5b60405190808252806020026020018201604052801561049f5781602001602082028036833780820191505090505b50915060005b818110156106cc5760008082815481106104c2576104c1611037565b5b906000526020600020906004020190508060000180546104e190610d43565b80601f016020809104026020016040519081016040528092919081815260200182805461050d90610d43565b801561055a5780601f1061052f5761010080835404028352916020019161055a565b820191906000526020600020905b81548152906001019060200180831161053d57829003601f168201915b505050505087838151811061057257610571611037565b5b602002602001018190525080600101805461058c90610d43565b80601f01602080910402602001604051908101604052809291908181526020018280546105b890610d43565b80156106055780601f106105da57610100808354040283529160200191610605565b820191906000526020600020905b8154815290600101906020018083116105e857829003601f168201915b505050505086838151811061061d5761061c611037565b5b60200260200101819052508060020160009054906101000a900473ffffffffffffffffffffffffffffffffffffffff168583815181106106605761065f611037565b5b602002602001019073ffffffffffffffffffffffffffffffffffffffff16908173ffffffffffffffffffffffffffffffffffffffff168152505080600301548483815181106106b2576106b1611037565b5b6020026020010181815250505080806001019150506104a5565b505090919293565b6000604051905090565b600080fd5b600080fd5b600080fd5b600080fd5b6000601f19601f8301169050919050565b7f4e487b7100000000000000000000000000000000000000000000000000000000600052604160045260246000fd5b61073b826106f2565b810181811067ffffffffffffffff8211171561075a57610759610703565b5b80604052505050565b600061076d6106d4565b90506107798282610732565b919050565b600067ffffffffffffffff82111561079957610798610703565b5b6107a2826106f2565b9050602081019050919050565b82818337600083830152505050565b60006107d16107cc8461077e565b610763565b9050828152602081018484840111156107ed576107ec6106ed565b5b6107f88482856107af565b509392505050565b600082601f830112610815576108146106e8565b5b81356108258482602086016107be565b91505092915050565b60008060408385031215610845576108446106de565b5b600083013567ffffffffffffffff811115610863576108626106e3565b5b61086f85828601610800565b925050602083013567ffffffffffffffff8111156108905761088f6106e3565b5b61089c85828601610800565b9150509250929050565b6000819050919050565b6108b9816108a6565b81146108c457600080fd5b50565b6000813590506108d6816108b0565b92915050565b6000602082840312156108f2576108f16106de565b5b6000610900848285016108c7565b91505092915050565b600081519050919050565b600082825260208201905092915050565b60005b83811015610943578082015181840152602081019050610928565b60008484015250505050565b600061095a82610909565b6109648185610914565b9350610974818560208601610925565b61097d816106f2565b840191505092915050565b600073ffffffffffffffffffffffffffffffffffffffff82169050919050565b60006109b382610988565b9050919050565b6109c3816109a8565b82525050565b6109d2816108a6565b82525050565b600060808201905081810360008301526109f2818761094f565b90508181036020830152610a06818661094f565b9050610a1560408301856109ba565b610a2260608301846109c9565b95945050505050565b600081519050919050565b600082825260208201905092915050565b6000819050602082019050919050565b600082825260208201905092915050565b6000610a7382610909565b610a7d8185610a57565b9350610a8d818560208601610925565b610a96816106f2565b840191505092915050565b6000610aad8383610a68565b905092915050565b6000602082019050919050565b6000610acd82610a2b565b610ad78185610a36565b935083602082028501610ae985610a47565b8060005b85811015610b255784840389528151610b068582610aa1565b9450610b1183610ab5565b925060208a01995050600181019050610aed565b50829750879550505050505092915050565b600081519050919050565b600082825260208201905092915050565b6000819050602082019050919050565b610b6c816109a8565b82525050565b6000610b7e8383610b63565b60208301905092915050565b6000602082019050919050565b6000610ba282610b37565b610bac8185610b42565b9350610bb783610b53565b8060005b83811015610be8578151610bcf8882610b72565b9750610bda83610b8a565b925050600181019050610bbb565b5085935050505092915050565b600081519050919050565b600082825260208201905092915050565b6000819050602082019050919050565b610c2a816108a6565b82525050565b6000610c3c8383610c21565b60208301905092915050565b6000602082019050919050565b6000610c6082610bf5565b610c6a8185610c00565b9350610c7583610c11565b8060005b83811015610ca6578151610c8d8882610c30565b9750610c9883610c48565b925050600181019050610c79565b5085935050505092915050565b60006080820190508181036000830152610ccd8187610ac2565b90508181036020830152610ce18186610ac2565b90508181036040830152610cf58185610b97565b90508181036060830152610d098184610c55565b905095945050505050565b7f4e487b7100000000000000000000000000000000000000000000000000000000600052602260045260246000fd5b60006002820490506001821680610d5b57607f821691505b602082108103610d6e57610d6d610d14565b5b50919050565b60008190508160005260206000209050919050565b60006020601f8301049050919050565b600082821b905092915050565b600060088302610dd67fffffffffffffffffffffffffffffffffffffffffffffffffffffffffffffffff82610d99565b610de08683610d99565b95508019841693508086168417925050509392505050565b6000819050919050565b6000610e1d610e18610e13846108a6565b610df8565b6108a6565b9050919050565b6000819050919050565b610e3783610e02565b610e4b610e4382610e24565b848454610da6565b825550505050565b600090565b610e60610e53565b610e6b818484610e2e565b505050565b5b81811015610e8f57610e84600082610e58565b600181019050610e71565b5050565b601f821115610ed457610ea581610d74565b610eae84610d89565b81016020851015610ebd578190505b610ed1610ec985610d89565b830182610e70565b50505b505050565b600082821c905092915050565b6000610ef760001984600802610ed9565b1980831691505092915050565b6000610f108383610ee6565b9150826002028217905092915050565b610f2982610909565b67ffffffffffffffff811115610f4257610f41610703565b5b610f4c8254610d43565b610f57828285610e93565b600060209050601f831160018114610f8a5760008415610f78578287015190505b610f828582610f04565b865550610fea565b601f198416610f9886610d74565b60005b82811015610fc057848901518255600182019150602085019450602081019050610f9b565b86831015610fdd5784890151610fd9601f891682610ee6565b8355505b6001600288020188555050505b505050505050565b6000606082019050818103600083015261100c818661094f565b90508181036020830152611020818561094f565b905061102f60408301846109c9565b949350505050565b7f4e487b7100000000000000000000000000000000000000000000000000000000600052603260045260246000fdfea2646970667358221220547a5e1a39d96d179fb863d6ac662efe58f885f9381fbb63ffb2bbadcafc0f6964736f6c634300081c0033",
  "linkReferences": {},
  "deployedLinkReferences": {}
}